:1000000000800020BD010000355C0000F95B0000AD
:10001000F95B0000F95B0000F95B0000F95B000090
:10002000F95B0000F95B0000F95B0000355C000043
:10003000355C0000F95B0000355C0000E95B000006
:10004000355C0000355C0000355C0000355C00006C
:10005000355C0000355C0000355C0000355C00005C
:10006000355C0000355C0000355C0000355C00004C
:10007000355C0000355C0000355C0000355C00003C
:10008000355C0000355C0000355C0000355C00002C
:10009000355C0000355C0000355C0000355C00001C
:1000A000012D0000112D0000355C0000355C0000C2
:1000B000355C0000355C0000355C0000355C0000FC
:1000C000355C0000355C0000355C0000355C0000EC
:1000D000355C0000355C0000355C0000355C0000DC
:1000E000355C0000355C0000355C0000355C0000CC
:1000F000355C000035670000355C00009D6E000037
:10010000355C0000F9860000355C0000355C0000BD
:10011000355C0000355C0000355C0000355C00009B
:10012000355C0000355C0000355C0000355C00008B
:10013000355C0000355C0000355C0000355C00007B
:10014000355C0000355C0000355C0000355C00006B
:10015000355C0000355C0000355C0000355C00005B
:10016000355C000089710000355C0000355C0000E2
:10017000355C0000355C0000355C0000355C00003B
:10018000355C0000355C0000355C0000355C00002B
:10019000355C0000355C0000355C0000355C00001B
:1001A000355C0000355C0000355C0000355C00000B
:1001B000355C0000355C0000355C0000564B4CF2AD
:1001C000205210B51A804DF628121A8000BF00BFC9
:1001D00005F034FD514B4FF010621A60504A9A609E
:1001E000504ADA60504A136813F4807304D14F49BF
:1001F0000B604FF4A85313604D4B1A78110703D5C9
:100200001A7842F008021A704A4B4B492A221A7097
:100210004A4A4B4B8B4204D252F8040F43F8040B6A
:10022000F8E7484B484900228B4202D243F8042B9E
:10023000FAE74649464A002352F8230041F82300D2
:1002400001336F2BF8D1434B434A802103F8011B44
:100250009342FBD1414B3D4A1A60414B8A221A70AE
:10026000A3F5805324225A70A0221A709A7992071B
:10027000FCD59A79D406FCD43A4A937903F00C035E
:10028000082B384BF9D103221A7140225A719A79FE
:100290009006FCD5334A9179324B4906FBD5324A58
:1002A000324911600221516020221A709A7902F0BD
:1002B0000C020C2AFAD12E4B2E4A1A602E4B4BF60A
:1002C0007F321A6000225A60072243F8042C2B4A1E
:1002D000C3F80C2D62B605F0A7FE144B1B68DA07B5
:1002E00005D5274805F064FD264B274A1A60274BA1
:1002F0001B785B0609D5234C234B22689A4204D114
:100300001F4805F055FD0023236008F0F1FF05F0BC
:100310009BFC07F0D5FEFEE70E2005403080044030
:10032000823F04000100002B10D0034014D0034092
:1003300002D0074000E007403098FF1F1CFB000080
:100340002087FF1F3098FF1F703300200082FF1F9F
:100350000000000000E400E05FE400E008ED00E0E1
:100360000050064000400640448004400000131145
:1003700004800440C010050014E000E000002020CC
:100380004108E6591CE00340A5C3945A00F0074019
:10039000FFFFFFFFFFFFFFFFFFFFFFFFFFFFFFFF6D
:1003A000FFFFFFFFFFFFFFFFFFFFFFFFFFFFFFFF5D
:1003B000FFFFFFFFFFFFFFFFFFFFFFFFFFFFFFFF4D
:1003C000FFFFFFFFFFFFFFFFFFFFFFFFFFFFFFFF3D
:1003D000FFFFFFFFFFFFFFFFFFFFFFFFFFFFFFFF2D
:1003E000FFFFFFFFFFFFFFFFFFFFFFFFFFFFFFFF1D
:1003F000FFFFFFFFFFFFFFFFFFFFFFFFFFFFFFFF0D
:10040000FFFFFFFFFFFFFFFFFFFFFFFFDEF9FFFF23
:1004100010B5054C237833B9044B13B10448AFF33E
:1004200000800123237010BD3098FF1F00000000E2
:1004300018FB0000084B10B51BB108490848AFF382
:1004400000800848036803B910BD074B002BFBD0A0
:10045000BDE81040184700BF000000003498FF1F9F
:1004600018FB00003098FF1F0000000010B5044684
:100470000C3001F0A3FA204610BD00BF10B50446B1
:100480000C3001F09BFA204610BD00BF2DE9F04F63
:1004900083B0019010F1680B46D000F5505808F178
:1004A0003808C34540D000F5E75A0AF1180AA8F504
:1004B000CF58A8F10808D146BAF1000F1ED008F5B0
:1004C000CF570837BA4519D008F5B0561036A7F5FA
:1004D0007877354676B107F57874A6420AD0A4F548
:1004E000A47404F1B00002F0BDFE204602F046FE06
:1004F000A542F4D1A6F57876B945E8D108F5F470AF
:1005000002F086FE08F59C7002F038FE08F1A800A3
:1005100002F0A8FE08F1080002F0BEFCAAF5CF5ACE
:10052000AAF1080AC345C2D1019803B0BDE8F08F13
:1005300008B500F58C6005F07BF908BD08B500F53D
:100540008C6005F0B3F808BD08B500F58C6005F0C7
:10055000F5F808BD08B500F58C6005F05DF808BD3C
:1005600008B5083003F014FF08BD00BF00B583B024
:1005700002AB03F8011D01221946083003F008FF01
:1005800003B05DF804FB00BF84B0164B1B681BB1C1
:10059000B3F1FF3F0CD01DE0F8B1134B1B68019382
:1005A000019A124B1A604FF0FF320E4B1A6011E0A5
:1005B00050B90D4B1B680293029B0C4A1068181A25
:1005C0000022084B1A600AE0074B1B680393039A4A
:1005D000064B1A60054B186801E04FF0FF3004B07D
:1005E000704700BF4C98FF1F58300020E82A0020B9
:1005F0002DE9F04383B005460124244E06F1080797
:10060000DFF8908002E00134A4B24D46601E80B253
:10061000337A13F0080F36D0736AF2699B1A00D44C
:100620008BB301220DF10701384603F001FC0128CC
:1006300027D19DF807300A2B10D105F101092B7045
:1006400004236B700023AB7014F0010FDBD1104852
:1006500003685B68012241469847D4E70D2B08BF29
:10066000A946D0D005F101092B7004236B7000233B
:10067000AB7041F6FE739C42C5D900236B702046D7
:1006800001E0FF23EEE703B0BDE8F083B8EAFF1F07
:100690008432002064E2000070B504463D2109F078
:1006A000E3FC28BB2A4D2146284603F029F80446DE
:1006B0000146284603F082F800283ED0254920460E
:1006C0000AF0E8F800283AD1234920460AF0E2F877
:1006D000002836D1214920460AF0DCF898BB204991
:1006E00020460AF0D7F800280CBFFE20A32070BDDA
:1006F000461C00220270164D2146284603F000F8E1
:1007000004460146284603F037F82146284603F000
:1007100067F83146284602F0F3FF0546204609F007
:10072000EFFE431C23443D2222549D420DD0294616
:10073000184609F073FE002070BDFE2070BDA02099
:1007400070BDA12070BDA22070BD002070BD00BF93
:100750001C9EFF1F68E2000074E2000080E20000BF
:100760008CE200000B78042B18D00D2B14D00A2B30
:1007700018D04A1C03E00D2B0ED00A2B12D01146C4
:1007800000F8013B12F8013B042BF4D106E00370A2
:1007900000234370481C70470D23F8E700210170C7
:1007A000084670470A23F2E70B782BB100F8013BAB
:1007B00011F8013F002BF9D10A230370042300F83C
:1007C000013F7047F0B585B00D460A2201A90AF035
:1007D0000DFA0446019803782D2B18BFFF2037D15E
:1007E000013004A941F80C0D0A220AF0FFF906466F
:1007F000019B1A782D2A18BFFF2029D1581C04A963
:1008000041F80C0D0A220AF0F1F9019B1B78E3B9BB
:10081000F6B2C7B23B463246A1B20E4803F0B6F973
:10082000A8B14E348DF80E408DF80D608DF80C7027
:1008300000248DF80A408DF8094004A800F8084DFE
:1008400002F08AFE2860204602E0FF2000E0FF2040
:1008500005B0F0BD0C2B0020F0B589B006463D2157
:1008600009F002FC40B94149414802F0D1FF414A38
:1008700013880133138077E00446451C002303707E
:1008800041F204023A498B522946684609F0C6FDF6
:10089000284609F035FE0746102804D93649344861
:1008A00002F0B6FF56E03549304609F04DFCB8B9C4
:1008B00029462F4802F0A0FF3149284609F044FCA0
:1008C00048B930480023036043608360C360294611
:1008D00009F0A4FD3EE02C49254802F099FF39E0DB
:1008E0002A49304609F030FC48B96378002B31D0F2
:1008F00029461F4802F0ACFE224B18832AE0244907
:10090000304609F021FC58B9637823B121492846C3
:10091000FFF758FFF0B12049154802F079FF19E0C0
:100920001E49304609F010FC80B963782BB1012FC5
:1009300003D8302B01D0392B04D119490C4802F0CF
:1009400067FF07E0303B0F4A937603E015490848FC
:1009500002F05EFF3D232370064A41F2040304497E
:10096000C95A13880B44138009B0F0BD98E2000007
:100970001C9EFF1F34B1FF1FACE2000084E30000A7
:10098000E4E20000E098FF1FC4E20000ECE2000097
:10099000F8E20000F098FF1F04E3000018E30000F5
:1009A00020E3000034E300002DE9F04784B0054661
:1009B0000F463D2109F058FB40B98749874802F0AE
:1009C00027FF874A13880133138001E1044600237F
:1009D000037041F2040281498B52437823B9814963
:1009E0007E4802F015FFE9E0461C304609F088FD1C
:1009F000102804D97C49794802F00AFFDEE07B49DF
:100A0000284609F047FF002841D03B46774A7849FD
:100A1000684609F0DFFA2946684609F095FB20B1DF
:100A200074496E4802F0F4FEC8E031466B4802F0AB
:100A3000E3FEDFF808820025DFF804A2DFF89C91CE
:100A400058F8041B304609F07FFBA8B9312F09D1B3
:100A500069480023036043608360C360314609F046
:100A6000DDFCABE065480023036043608360C36046
:100A7000314609F0D3FCA1E0EBB2032B03D9514678
:100A8000484602F0C5FE0135052DD9D196E05C49F6
:100A9000284609F0FFFE002843D03B46584A5449F7
:100AA000684609F097FA2946684609F04DFB20B1DF
:100AB00054494A4802F0ACFE80E06378303B092B91
:100AC0002AD8A07808F046FC30B3E37823BB312F56
:100AD0000FD1494D2B7C23F07F032B741022002172
:100AE00030460AF083F800F07F002B7C03432B7420
:100AF00064E0322F0CBF414D434D2B7C23F07F032C
:100B00002B741022002130460AF070F800F07F00AC
:100B10002B7C03432B7451E03C49304802F078FEB3
:100B20004CE03B49284609F0B5FE002842D03B4640
:100B3000374A2F49684609F04DFA2946684609F0B8
:100B400003FB20B13349254802F062FE36E032490A
:100B5000324809F0F9FA48B92A463149314807F0D4
:100B600065FA314A13880133138027E031461B4868
:100B700002F042FE2D49304609F0E6FA80B9312FE5
:100B800005D11D4A137C63F07F03137416E0322FE6
:100B90000CBF1A4A1C4A137C63F07F0313740DE0E8
:100BA0002349304609F0D0FA40B122490B4802F0FF
:100BB0002FFE03E02049094802F02AFE3D2323705E
:100BC000074A41F204030549C95A13880B441380AC
:100BD00004B0BDE8F08700BF98E200001C9EFF1F34
:100BE00034B1FF1F4CE30000ACE2000084E30000DE
:100BF0005CE3000064E30000EC2A002038B1FF1F32
:100C00008CE3000094E3000098EAFF1FB0E30000CB
:100C1000C8E30000D0E30000E4E20000E098FF1F1A
:100C2000E8E3000084320020189EFF1F00E400006B
:100C300004E4000008E4000034E300000088FF1F23
:100C40007CE30000704700BF2DE9F04F9BB0B14B33
:100C50000CAC0FCB07C42380F92141F20413AE4A38
:100C6000D154AE4B1A680092009AAD490A601C68D4
:100C7000AC48AD4E1946AD4D037813F0FF0F00F0B0
:100C80000884337813F0030F00F003840B682F6897
:100C9000DB1B182B40F2FD83A24CA34E9F49A34DB2
:100CA00041F28730237813F0FF0F00F0FA83337896
:100CB00013F0030F00F0F5830B682F68DB1B182B74
:100CC00040F2EF8342F2107005F00CFA934B1B6870
:100CD0000293029A924B1A6042F2107005F0BCFD2A
:100CE000934B944A9449954807F0A0F91A2005F0CF
:100CF00003FF00211F2005F0C3FE914D914E2946B0
:100D0000304607F093F9904C2946204607F08EF9BB
:100D1000322005F073F98D4D2946304607F086F9EB
:100D20002946204607F082F90121162005F082F8B5
:100D30000121092005F07EF80221102005F07AF843
:100D4000834C0321204602F08DFD204602F0C8FDB1
:100D50000021204602F086FDB4F84C30D3B113F4E4
:100D6000E06F04D07B49754807F060F9FEE7DA438D
:100D700002F0F80212EA132204D077496F4807F014
:100D800055F9FEE713F4004F04D074496B4807F09F
:100D90004DF9FEE70221102005F04CF8102005F077
:100DA0003BF860B16E49654807F040F910242046D1
:100DB00005F032F80028FAD1322005F01FF9694910
:100DC0005E4807F033F9684804230F2200F26C41B3
:100DD00000F58C6004F074FB40B3634C04F23C40BB
:100DE00003F052FA0121204604F0C8F920B900218D
:100DF000204604F0C3F9C8B15B48014600F23C400C
:100E000002F0FAFF90B1584B93F83C3413F0700F96
:100E10000CD0564A564B1A6000238DF80C308DF8D2
:100E20000D309DF830302F2B1BD10BE0434C0F229F
:100E30005049204607F0FAF84F4A21464A4802F046
:100E400039FFFEE79DF831305BB9474D05F23C4470
:100E5000204603F019FA2946204602F0CDFFD8B902
:100E600014E001230CAA414903A803F015FA68B164
:100E70009DF80C3013F0700F08D03C4C03AD0FCD33
:100E80000FC40FCD0FC42B68236005E00CAA3B49AB
:100E90002A4807F0CBF8FEE73949284807F0C6F89A
:100EA0000021324803F0B4F80024DFF8C0A0DFF8D6
:100EB000D89009F10806DFF8D48000E02C46012222
:100EC0005146304603F04EF9002876D099F80830A4
:100ED00013F0080F03D1304603F0D6F9EFE7651C95
:100EE000EDB24FEA851B08EB0B072022394630464E
:100EF00003F080FB384609F003FB04385BFA80F00E
:100F00002049404409F08CF8002841D0304603F0D5
:100F1000BBF9D4E720E900001C9EFF1F58300020D9
:100F2000E40A0020503200206032002068330020A4
:100F300020E400002CE4000038E4000084320020AB
:100F400068E4000064320020743200206CE4000089
:100F50000C2B002088E40000BCE40000E0E400006A
:100F6000F8E4000008E50000A899FF1FE49DFF1FBA
:100F70005030002018E5000064E500004CE500005A
:100F800088E50000C0E50000B8EAFF1FF8B2FF1FC7
:100F90008C4C3B462A468C49204607F047F82146B0
:100FA000304603F0ABFF8949204607F03FF8304652
:100FB00003F06AF9622D81D92C4624B9844981480D
:100FC00007F034F8FEE7834F7E4DDFF8509206F0CD
:100FD0003DFD10B106F0EEFCF9E73946284607F072
:100FE00025F8002606F032FD0028FBD006F0E2FCD2
:100FF000C0B20246A0F13003092B0BD813F0FF005A
:1010000001D1002EEED006EB860800EB480000F080
:10101000FF06E7E70A2824D1EEB1B4421BD33246DB
:101020006D49684807F002F86C4B03EB8618012302
:1010300042466B4909686B4803F02EF928B14246D5
:101040006949604806F0F2FF10E0424667495D4892
:1010500006F0ECFF0AE032466549284606F0E6FF56
:10106000B5E74946284606F0E1FFB0E7554C61492F
:10107000204606F0DBFF0120FFF786FA5E4E304681
:10108000FFF7B6FA0546574803F0FEF80020FFF7D1
:101090007BFA03462A465949204606F0C7FF002539
:1010A00041F20603564AD5525649204606F0BEFF85
:1010B0000120FFF769FADFF86881514F07F5805486
:1010C000063431465048FFF74DFB0646002800F035
:1010D000A9804D4B1B78042B02D188F80030A1E089
:1010E0002288013222800D2BEBD00A2BE9D0DFF8C9
:1010F00018914946384602F003FB0146484609F07C
:101100008DF999F80030232BDBD02321484608F0D5
:10111000ABFF40B13D49384602F07AFB3C4A1388A8
:1011200001331380CDE73848FFF7B6FA814668B13E
:10113000FE2804D13749384602F06AFBC1E732493C
:101140004046FFF731FB80464D46BAE7A02D0BD154
:10115000DFF8B4904B4622882F491A4806F066FF04
:101160004846FFF779FBACE7A12D0CD1DFF898904A
:101170004B4622882849134806F058FF312148463B
:10118000FFF712FC9DE7A22D0CD1DFF87C904B46B7
:10119000228821490B4806F049FF32214846FFF7D3
:1011A00003FC8EE7A32D8CD1DFF85C904B462288A0
:1011B0001949044806F03AFF33214846FFF7F4FB8B
:1011C0007FE700BF84320020C8E5000060ED00002A
:1011D000D8E5000020E6000030E60000F8B2FF1F6E
:1011E00050300020C0EAFF1F38E6000048E600004B
:1011F00064E6000090E60000E80A00209CE600009B
:101200001C9EFF1FBCE60000F8B1FF1FCCE60000EB
:1012100034B1FF1F98E20000E0E6000078E600002D
:10122000E4EAFF1FA64B1B783BB9A649A64806F087
:10123000FDFEA64A138801331380A54B1B78002BB3
:1012400000F03781A34B1B78ABB9A3499E4806F049
:10125000EDFE9E4A138801331380A04B1B7853B1D7
:101260009B4B1B783BB99E49974806F0DFFE974A97
:10127000138801331380954B1B8813B3924C994903
:10128000204606F0D3FE984D2946204606F0CEFEB5
:10129000964B1B888D4A12889549204606F0C6FE5B
:1012A0009449204606F0C2FE9349204606F0BEFE51
:1012B0002946204606F0BAFE9049204606F0B6FEC2
:1012C000FEE78A4B1A888E497F4806F0AFFE8D4BA9
:1012D0001A798DF844209A6812921A7B8DF84C2066
:1012E000894A10925A7B8DF84D201B691493874CC4
:1012F000874B10AA7021204601F04AFE10A800F08A
:101300005DFB844A0221204601F0CEFD00212046EB
:1013100001F0B6FE8021204601F056FE68B16A4C0D
:101320007D49204606F082FE7C49204606F07EFE7E
:101330007B49204606F07AFEFEE7724B1A798DF85B
:1013400058209A6817921A7B8DF860206E4A159281
:101350005A7B8DF861201B6919936D4B15AA572193
:10136000704801F0F9FF044615A800F027FBC4B946
:101370006C4C684A0221204601F07CFF204602F0B6
:101380003DF820B96849504806F050FE09E04E4C3F
:101390006649204606F04AFE6149204606F046FEB0
:1013A000FEE7604C0021204601F0F2FF2023A363FA
:1013B000434B2363204602F05BF8464B1B785BB13E
:1013C0002021204601F0E4FF2023A363414B236347
:1013D000204602F04DF810E03E4D2022FF21284625
:1013E00008F0A4FB4F4C2021204601F0D1FF202320
:1013F000A3632563204602F03BF8354B1B7863B1AD
:10140000484C4021204601F0C3FF2023A363304B0A
:101410002363204602F02CF810E02D4D2022FF21FE
:10142000284608F083FB3F4C4021204601F0B0FFE6
:101430002023A3632563204602F01AF8274B1B786C
:1014400063B1384C6021204601F0A2FF2023A36342
:10145000224B2363204602F00BF810E01F4D2022A0
:10146000FF21284608F062FB2E4C6021204601F047
:101470008FFF2023A3632563204601F0F9FF124C60
:101480002B49204606F0D2FD2549204606F0CEFD28
:10149000FEE70B681B1BB3F57A7F7FF6EDABFFF71A
:1014A000FBBB0B680193019B9B1A83427FF6FAAB4F
:1014B00008E40A4B1B78002B7FF4D5AEDBE600BFB7
:1014C000E098FF1FE8E600008432002034B1FF1FDF
:1014D00038B1FF1FEC2A002010E7000098EAFF1F38
:1014E00038E7000060E7000094E70000189EFF1F47
:1014F00098E70000B8E70000D8E7000000E8000027
:1015000034E80000B42B00202CEB000058B1FF1F82
:1015100054E80000A08601005CE8000084E80000B8
:101520009CE800005098FF1FC4E80000E0E80000BD
:1015300000E900002DE9F0438DB0CC4B03F17006BB
:1015400003F5515841F6E819304601F06BFC06F1FD
:10155000A00001F065FE06F5987001F0D5FD06F5D6
:10156000F07001F013FE06F5D06506F5EE57A5F50F
:101570007674204601F0C8FD04F1B00001F050FE81
:1015800004F5A474A542F4D105F57875AF42EED107
:101590004E44B045D8D1B64F3A46B649B34807F0A5
:1015A00095FEB54C204600F08BF93A46B3492046EB
:1015B00007F08CFEB24C204600F082F93A46B14961
:1015C000204607F083FEB04C002541F20403E552AB
:1015D00041F20603E552AD4E4FF04E084246314609
:1015E00004F58050083004F065FA4246314604F5AF
:1015F0008250163004F05EFA04F5855E0EF1040E9A
:10160000B4465CF8500FDCF80410DCF80820DCF875
:101610000C30AEE80F00BCF81030AEF8003041F2EC
:10162000B8085022294604EB080008F07FFA03238B
:1016300004F8083041F2B9016218334653F8640FD8
:1016400060509B889380D580222241F2C203E252EF
:1016500045F2604241F2C403E2504FF6205241F29B
:10166000C803E25040F6555241F2CC03E25240F634
:10167000B86241F2CE03E25241F21C0241F2D003C1
:10168000E252012241F20313E254F82241F2041320
:10169000E25404F5885808F108084FF4FC72294612
:1016A000404608F043FA06F16C030FCB88E80F00C0
:1016B00088F8105041F21912A118754B1868A05003
:1016C0009B888B80022241F21F13E254FF2341F2D8
:1016D0003712A35441F24F12A35441F26712A3549C
:1016E00041F27F12A35441F29712A35441F2AF1278
:1016F000A35441F2C712A35441F2DF12A35441F2A2
:10170000F712A35441F20F22A35441F22722A3540B
:1017100041F23F22A35441F25722A35441F26F22D7
:10172000A35441F28722A35441F29F22A35441F2D1
:10173000B722A35441F2CF22A35441F2E722A3548B
:1017400041F2FF22A354534C04F1040E06F1800C25
:10175000BCE80F00AEE80F009CE803008EE8030031
:1017600004F11C0356F8980F7168B26807C3327B06
:101770001A70494E33680193019B23650A23636500
:1017800033680293029BA3654FF4FA73E3653368F1
:101790000393039B23664FF47A7363663268049263
:1017A000049AA26641F28832E26632680592059A8E
:1017B00022670522626732680692069AA267E3678B
:1017C00032680792079AC4F88020C4F884303368DE
:1017D0000893089BC4F888303223C4F88C303268F0
:1017E0000992099AC4F89020C4F8943033680A9397
:1017F0000A9BC4F8983047F23053C4F89C303268E2
:101800000B920B9AC4F8A020C4F8A430234C2046B5
:1018100001F006FD3A462249204607F057FD214CCB
:10182000204601F0FFFA3A461F49204607F04EFDD8
:101830001E4BDD7183F83C5483F83D5483F86454A7
:10184000192283F8662483F86954194A1A60194BDF
:101850001D725D721D71184A1A6033680093009AF8
:10186000164B1A600DB0BDE8F08300BFB8B5FF1F7E
:10187000FC87FF1F8D0400000099FF1F7D040000FE
:10188000F0E9FF1F6D0400001C9EFF1FBCE100007B
:1018900030E900000C2B0020583000205098FF1F2A
:1018A0006532000058B1FF1F992E0000A899FF1F54
:1018B000ACE10000B8EAFF1F9CE10000E40A002050
:1018C00070B40646002343708370F023C370FF2377
:1018D0000371032343710F4B83600F4B1A7902741A
:1018E0000E4AC2609A6842611A7B02760C4AC26054
:1018F0005A7B42761B69C36100F12004094D0FCD6C
:101900000FC40FCD0FC40FCD0FC42B68236030461A
:1019100070BC7047FCE90000C82B0020B0E9000053
:101920002CEB0000C8E900000369D3F83801D3F8B4
:101930003431C01A704700BF704700BF0369D3F845
:101940004422B2F5817F09D8D3F84422501CC3F851
:101950004402134483F83C110120704701230371B2
:101960000020704730B40469D4F84432B3F5817F65
:101970001FD8D4F84452C5F58175013504F59E731E
:10198000D4F84442954202D2012202712A4642B161
:10199000013C23448D1811F8014B03F8014FA94273
:1019A000F9D10169D1F844321344C1F844321046E8
:1019B00002E001230371002030BC704738B50446B3
:1019C000084B0360036993F84822022A08D1D3F830
:1019D00064522DB1284606F09FF9284606F07CFB9C
:1019E000204638BD2CEB000010B4002202714FF4E9
:1019F0007A7484600273054A026041734FF41C7468
:101A0000034A04FB0121016110BC70472CEB00006C
:101A10001488FF1F01280CBF02200120704700BF5F
:101A2000C3681B7813F0200F40F0B08070B50446F7
:101A30000D46836880211970C3681221197090F8CF
:101A40004932012B0BD022B9002380F84832012003
:101A500070BD531EDBB2012B00F29A8000E0012220
:101A600025B94FF080714B4B196005E0012D03D172
:101A70004FF00071474B1960022A40F08380D4F880
:101A800064624EB9082006F023FB0646002106F0EA
:101A9000E5F8C4F864627EB13379102B0CD130467E
:101AA00006F03AF9304606F017FB0023C4F864321A
:101AB000012084F8480270BD65BB3268938B43F007
:101AC00008039383D4F864221379103332483349DE
:101AD00041F82300127953119B0003F1604303F591
:101AE000614302F01F02012101FA02F21A60D4F8E8
:101AF00064321A68938B43F002039383D4F8643200
:101B00001B7903F1804303F5043300221A709622F7
:101B10001A702FE0012D2DD1D4F864321A68938BFE
:101B200043F008039383D4F86422137910331C48DC
:101B30001A4941F82300127953119B0003F16043C5
:101B400003F5614302F01F02012101FA02F21A605B
:101B5000D4F864321A68938B43F002039383D4F869
:101B600064321B7903F1804303F5043300221A70B9
:101B700097221A70002384F85A32022384F84832DC
:101B8000012070BD012084F8480270BD002070471C
:101B9000012070BD00E100E0012D00000082FF1F68
:101BA000112D000070B4244CA4FB0135AD092B02AB
:101BB000A4FB0225AD09B3FBF5F5B5F5A05F1FDB6E
:101BC0001E4A012352F8044FB5EB042F03DB013307
:101BD000372BF7D100E0A3B15C1E184E56F8242035
:101BE000A5EB0222002AB8BF524256F82360A5EBAB
:101BF0000625002DB8BF6D42AA42D8BF234600E09B
:101C0000002342680E4CE45C14700C4A52F82330F6
:101C1000B1FBF3F3C0F84C320A4B994203D9836904
:101C200004221A7006E08369074AA2FB0121C1F36E
:101C30000751197070BC7047D34D621044EB00001F
:101C400020EC0000FF6BDC02819F5E162DE9F0475F
:101C50009DF820E0BEF1000F72D0C468247814F023
:101C6000200F64D16CE0012A64D81C4615468946D1
:101C70008046BEF1000F32D090F84B32002B0CBFE3
:101C80004FF0000A4FF0020A90F84A32032B26D890
:101C9000DFE803F0020B141D5146112004F0CAF8CE
:101CA0005146102004F0C6F819E05146122004F005
:101CB000C1F85146132004F0BDF810E051461E2033
:101CC00004F0B8F851461D2004F0B4F807E051467E
:101CD0001F2004F0AFF851461A2004F0ABF8B9F118
:101CE000000F0DD115B1012D05D009E0214B1E606B
:101CF000043B1E6014E0204B1E60043B1E600FE09E
:101D0000B9F1010F0CD1022D06D0032D08D11B4BC8
:101D10001F6004331F6003E0194B1E60043B1E600C
:101D200088F84A5288F84B420120BDE8F08700202D
:101D3000BDE8F0870020BDE8F0870020BDE8F0870F
:101D4000002B40F2032608BF4FF4197640F20364DB
:101D500040F26467002B18BF2746002983D0012971
:101D600002D00020BDE8F087941E012C7FF67DAFE5
:101D7000E3E700BF04A004400CA0044000D00440EE
:101D80002CB0044070B582B004469DF818600D4632
:101D900029B93048016841F04001016006E001299D
:101DA00004D12C48016841F08001016084F8492287
:101DB000002184F851123AB9636920221A7022680E
:101DC0001170E269117011E06269002E3AD130E0C1
:101DD0005B00DBB21370E2697300DBB205E07600F2
:101DE000F6B21670E2695B00DBB213700023009359
:101DF0009DF820309DF81C2029462046FFF726FF3D
:101E0000099A15492046FFF7CDFE9DF8282029465E
:101E10002046FFF705FE94F849321BB9A3688022DB
:101E20001A7002E0A368C0221A700023C4F86C3252
:101E30000EE02021117022685B00DBB21370E269B2
:101E40000023D2E72821117022689E42C0D8C6E73D
:101E500002B070BD34800440006CDC022DE9F04F0C
:101E600083B090F84A32032B62D8DFE803F04002D7
:101E700044064FF01208132540E04FF01F081A25C2
:101E80003CE0404603F0C8FF90B9013C14F0FF0469
:101E90000ED05146284603F09BFF3346013BFDD14F
:101EA0004946284603F094FF3346013BFDD1E8E75D
:101EB00097F84B3297F84A2200210091594638464C
:101EC000FFF7C4FEFB681B7813F07F0F0BD0BB68D5
:101ED00000221A7050231A46013AFDD1BA688021B7
:101EE0001170013BFDD1002387F8513220E04FF003
:101EF0001108102502E04FF01E081D258B460746ED
:101F000090F84B32002B0CBF00210221404603F019
:101F100091FF0121284603F05BFF0121284603F0D1
:101F200089FF0B244FF0000A50264FF00109A8E763
:101F300003B0BDE8F08F00BF2DE9F04104460E4626
:101F400015461F4604F036F80DB9D4F8685204F06F
:101F500031F88046A3681A7812F0200F02D0B4221C
:101F60001A7039E02DB104F025F8C8EB0000854265
:101F70000AD9E3681B7813F0200FF3D1002384F80B
:101F80004932A368B0221A70A3681B7813F0200F9F
:101F900016D131462046FFF761FFD4F86C32B3F119
:101FA000FF3F1CBF0133C4F86C32E3681B7813F0A9
:101FB000200F05D1002384F84932A368B0221A709B
:101FC000A3681B7803F0200303F0FF0023B9042368
:101FD00084F85132BDE8F08194F84832013BDBB21D
:101FE000012B31D803F04EFE16B1012E03D005E0CF
:101FF000184B1B7804E0184B1B7801E0154B1B783D
:10200000834224DB0F2803DC01203870BDE8F08117
:1020100016B1012E08D00FE0A0F11003DBB20D4A7B
:1020200013700120BDE8F081A0F11003DBB20A4A71
:1020300013700120BDE8F081A0F11003DBB2054A66
:1020400013700120BDE8F0810120BDE8F08101207E
:10205000BDE8F08118E400E019E400E003694900FC
:1020600083F83C1103690122C3F844220023037161
:10207000026982F8513270472DE9F04383B01E4661
:1020800000238DF80730D0F84432002B00F0C480D4
:10209000044615460EB9D0F86862E36812221A7039
:1020A0000DF1070332462046FFF746FF002800F0F7
:1020B000B38094F848321BB19DF80720002A53D012
:1020C00003F078FF8146012384F8513284F850529E
:1020D00004F23B1700254FF00208D4F844329D4229
:1020E00031D22EB103F066FFC9EB000086422AD937
:1020F000236917F8012F1A70E268137813F0020FA2
:10210000FBD082F80080E2681378DBB213F0100F86
:1021100008D0072384F8513210231370A36880225B
:102120001A7079E013F0010F0BD01DB9052384F864
:10213000513202E0062384F85132A36880221A70DB
:102140006AE00135C9E7D4F844329D4234BF042324
:10215000002384F8513294F85032012BA3680CBF4D
:102160008022B0221A7057E05A1ED2B2012A53D8E8
:10217000012284F8512284F850520022C4F84022EF
:10218000022B14D1D4F84432042B18D80FE0136872
:102190009B6833B913680021012018725972997233
:1021A000D972136800221A765A769A76DA76A3687C
:1021B000F0221A70236994F83C211A702CE0012354
:1021C00084F85A32D4F8641204F59F73D4F8442288
:1021D000033A08680360086800230125057143710C
:1021E0000868C3710868057243728372C372086815
:1021F0005542C5600868C2830968CA82D4F864225F
:102200002169106801611068037543751068837156
:10221000B1F1804FBED3BAE703B0BDE8F08300BF91
:102220002DE9F04182B09DF8205000248DF8074040
:10223000002B00F07981B3F5827F03D3082380F867
:10224000513271E1C0F854320023C0F83431C0F883
:102250003831099B13B9D0F8683209931646044601
:10226000C36812221A700DF10703099AFFF764FE82
:10227000002800F0598194F8483223B19DF80720D6
:10228000002A00F0918003F095FE0746022384F8AF
:10229000513284F850522269730043F00103DBB2DB
:1022A0001370E268137813F0020FFBD0022313704F
:1022B000E2681378DBB213F0100F08D0072384F81C
:1022C000513210231370A36880221A702CE113F08E
:1022D000010F06D0052384F85132A36880221A70BA
:1022E00022E1032384F85132D4F85432012BA3683D
:1022F0000CBFA822A0221A7023691B780226002591
:102300004FF0A808D4F83821D4F854329A4280F01B
:102310000B8194F85132DBB2032B40F00581E26867
:10232000137813F0020FFBD01670099B43B103F032
:1023300041FEC01B099B83428CBF0020012000E0AE
:102340002846D4F838310233D4F85422934200F0AE
:102350008280002800F0D08094F85932002B7AD087
:10236000B2E0002800F0828094F85932002B40F04F
:10237000CB807BE0042384F8513294F85032012B57
:1023800006D00DE084F8515294F85032012BB9D1A7
:102390001023013BFDD1A36880221A700028B1D020
:1023A000012384F85932ABE75A1ED2B2012A00F257
:1023B000BB80022284F8512284F85052934240D1CB
:1023C000D4F85432042B3CD9012384F85A32D4F87F
:1023D000643221691A681160186800220271427122
:1023E0001868C271B1F1804F02D31A68926832B98D
:1023F0001A6800210120107251729172D1721A680C
:102400000023137353739373D373D4F8641204F1DA
:102410003000D4F85422013A0D682861086801257B
:102420000575437508688371086805724372837285
:10243000C3720B685042986108681346C2830A68E9
:10244000D382A368F0221A702269730043F001035B
:10245000DBB2137068E0A36883F80080D4F83831E9
:102460000133D4F8542293420BD27AE723691A78C5
:10247000D4F83831591CC4F83811234483F830207B
:102480008CE784F85952A368B0221A7023691A782D
:10249000D4F83831591CC4F83811234483F830205B
:1024A00000283FF46FAF65E784F85952A368B02263
:1024B0001A7023691A78D4F83831591CC4F83811C5
:1024C000234483F8302055E7D4F838310133D4F869
:1024D00054229342E8D244E784F85952A368B022C8
:1024E0001A7023691A78D4F83831591CC4F8381195
:1024F000234483F8302045E7D4F838310133D4F849
:1025000054229342E8D22CE784F85952A368B022AF
:102510001A7023691A78D4F83831591CC4F8381164
:10252000234483F8302025E702B0BDE8F08100BFE6
:10253000036993F85132043B042B0CD8DFE803F015
:10254000090305071000022070470320704704208C
:102550007047042070470079003018BF0120704791
:102560000120704790F8513213F0FF0F1BD090F804
:102570005132DBB2052B18D090F85132DBB2062B6A
:1025800015D090F85132DBB2072B12D090F85132AF
:10259000DBB2042B0FD090F85102C0B2082814BF50
:1025A0000020012070470120704701207047012062
:1025B0007047012070470120704700BF70B5044686
:1025C000154603F0F7FC0DB9D4F8685203F0F2FC9D
:1025D00006462046FFF7C6FF38B9002DF9D003F0B4
:1025E000E9FC801B8542F4D800E0ADB103F0E2FCC9
:1025F000801B854210D894F84832022B0CD194F8F5
:102600005A3213F0FF0F07D02046FFF7ABFF002828
:10261000FAD0042384F8513294F85132DBB2012B02
:1026200009D094F85132DBB2022B04D094F8513225
:10263000DBB2032B02D1042384F851324023013B47
:10264000FDD194F8513213F0FF0F0CBF0120002090
:1026500070BD00BF70B506460C4615461A46049B71
:1026600029462046FFF708FD049A29462046FFF731
:10267000A5FF3046FFF75CFF70BD00BFA3B130B5CA
:1026800083B00D460446079901919DF818100091FA
:102690002946FFF7C5FD079A29462046FFF78EFF1A
:1026A00020B1D4F8380102E000207047002003B0C8
:1026B00030BD00BFD0F83421D0F838319A4208D26A
:1026C000D0F834315A1CC0F83421184490F8300046
:1026D00070474FF0FF30704708B50069FFF7EAFF19
:1026E00008BD00BFD0F83421D0F838319A423DBF40
:1026F000D0F83431C01890F830004FF0FF307047F8
:1027000008B50069FFF7EEFF08BD00BFD0F834211F
:10271000D0F838319A4208D2D0F834315A1CC0F877
:102720003421184490F8300070470020704700BFF3
:1027300038B5C2681578EDB281680B78DBB213F05A
:10274000200F00F0C18113F0100F00F0058190F808
:102750005A32DBB2022B04D090F85A32DBB2032B90
:102760004CD1D0F864120B689B8B03F080039BB2B2
:10277000002B00F0848290F85A32DBB2022B40F03A
:102780007E8272E2137813F0800FFBD00A79B54B8A
:102790001A70002380F85A32D0F84432013BC0F856
:1027A00040320269D0F84032034493F83C31137050
:1027B00020E0AD4B1C680A7901239340234219D0D5
:1027C000AA4B1A70D0F864321A79A94B1A700023F8
:1027D00080F85A3215F0100F0CD0072380F85132D0
:1027E000C36812221A70836880221A700023C0F80E
:1027F000403238BDC36802221A7038BD90F8513299
:10280000DBB2012B56D115F0100F0DD0002380F84C
:102810005A32072180F851121221117082688021EA
:102820001170C0F8403238BD15F0010F0FD00023F1
:1028300080F85A32D0F840321BB9052380F8513263
:1028400002E0062380F8513280230B702EE0D0F88E
:1028500040320133C0F84032D0F8442293420AD3C8
:10286000002380F8513290F85032012B0CBF8023A6
:10287000B0230B701AE090F85A32DBB2012B0ED164
:10288000022380F85A32F1230B70D0F864321A799F
:10289000784B1A70036990F83D211A7006E00269BE
:1028A000D0F84032034493F83C311370C3680222DD
:1028B0001A7038BD90F85132DBB2022B36D115F0C8
:1028C000100F08D0072380F8513212231370836849
:1028D00080221A7038BD15F0010F05D0052380F84D
:1028E000513280230B701DE090F85A32DBB2012B7D
:1028F0000CD1022380F85A32E1230B70D0F86432F5
:102900001A795C4B1A7003691B780BE0032380F87B
:102910005132D0F85432012B0CBFE823E0230B7066
:1029200003691B78C36802221A7038BD90F85132CF
:10293000DBB2042B0AD190F85032012B0CBF80235C
:10294000B0230B70C36802221A7038BD80230B704D
:10295000C36802221A7038BD90F85A32DBB2022BDB
:1029600004D090F85A32DBB2032B55D1D0F8642250
:1029700013689B8B03F080039BB2002B00F09081C7
:1029800090F85A32DBB2022B40F08A817EE1127954
:10299000344B1A70002380F85A3290F85132DBB26F
:1029A000042B1CBF002380F851328368B0221A70B8
:1029B000D0F85432013BC0F83831D0F838315A1CC5
:1029C000C0F8382102691278034483F8302090F867
:1029D0005032012B1CD11023013BFDD18368802292
:1029E0001A7015E0204B19681279012393400B42AD
:1029F0000ED01F4B1A70D0F864321A791B4B1A7024
:102A0000002380F85A3280F85132836880221A708D
:102A1000C36802221A7038BDD0F838310233D0F8BA
:102A20005422934200F0438190F85132DBB2042BE0
:102A300004D190F85932002B00F03981D0F83831A8
:102A40000133D0F85422934280F03F8190F8513204
:102A5000DBB2042B40F02E8190F85932002B40F06D
:102A6000348127E11C8000402C8000401F80004002
:102A70001E8000401B800040002380F85132836894
:102A8000B0221A70D0F838315A1CC0F838210269C7
:102A90001278034483F8302090F85032012B05D18E
:102AA0001023013BFDD1836880221A7090F85132C7
:102AB000DBB2042B04D190F85932002B00F00F81C7
:102AC000C36802221A7038BD044615F0100F08D0F2
:102AD0001023137015F0400F06D1C36802221A703C
:102AE00038BD15F0400F60D094F85132DBB20A2B9C
:102AF00004D1D4F85C32002B40F0F58015F0040FBF
:102B00001ED0092384F851320023C4F84432A3684C
:102B1000D0221A7023691B785B0884F85232D4F8EB
:102B2000603203B19847D4F844320BB984F83C3191
:102B3000236994F83C211A700123C4F8403230E034
:102B4000002384F8583294F84A32012B05D103222D
:102B50006849122003F0AEF915E02BB9032265494C
:102B6000112003F0A7F90EE0022B05D103226249E0
:102B70001E2003F09FF906E0032B04D103225E49D7
:102B80001F2003F097F90A2384F851320023C4F878
:102B90003831A368C0221A7023691B785B0884F857
:102BA0005232E36802221A7038BD13F0100F20D0A1
:102BB00015F0010F15D1D0F84022D0F844329A42D6
:102BC00008D2D0F840325A1CC0F84022034493F88F
:102BD0003C2100E0002223691A70A368D0221A70F9
:102BE0003FE0C0230B7003691B78002380F851324B
:102BF00037E090F85132DBB20A2B32D1002380F853
:102C0000583290F84A32012B05D10322394912205B
:102C100003F050F915E02BB903223649112003F0D7
:102C200049F90EE0022B05D1032233491E2003F09F
:102C300041F906E0032B04D103222F491F2003F0A2
:102C400039F923691B78DBB2D4F83821B2F5817FDA
:102C500007D8D4F83821511CC4F83811224482F81E
:102C60003030E36802221A7038BD0A79234B1A709B
:102C70008368F0221A70032380F85A32BAE590F87C
:102C80005A32DBB2032B7FF494AD7BE512791B4BF8
:102C90001A708368E8221A70032380F85A32B7E664
:102CA00090F85A32DBB2032B7FF49CAE6FE6E82338
:102CB0000B70C3E6D0F838315A1CC0F838210269CD
:102CC0001278034483F83020F0E6002380F859326C
:102CD00090F85132DBB2042B7FF4CEAECFE6012365
:102CE00080F85932ECE60022C4F83421D4F83801D7
:102CF000984703E7C52D0000D52D00001F80004038
:102D000008B500210148FFF713FD08BD1488FF1F17
:102D100008B501210148FFF70BFD08BD848AFF1F9C
:102D200010B50446C3681B7813F0200F24D100238C
:102D300080F8513290F84A32012B03D1122002F070
:102D4000EDFF0FE01BB9112002F0E8FF0AE0022BB3
:102D500003D11E2002F0E2FF04E0032B02D11F206A
:102D600002F0DCFFD4F85C3253B30022C4F8342103
:102D7000D4F83801984710BD90F858320133DBB2CF
:102D800080F85832012B03D890F84932012B17D024
:102D900094F84A32012B03D1122002F0BFFF10BD7C
:102DA0001BB9112002F0BAFF10BD022B03D11E2067
:102DB00002F0B4FF10BD032B02D11F2002F0AEFFC2
:102DC00010BD00BF08B500210148FFF7A9FF08BDED
:102DD0001488FF1F08B501210148FFF7A1FF08BDB6
:102DE000848AFF1F70B50B4C00212046FEF7FCFDC6
:102DF000094E0A4D32462946204606F067FA084C2D
:102E000001212046FEF7F0FD32462946204606F015
:102E10005DFA70BDC82B0020FC87FF1FBD190000A4
:102E2000B42B002070B40646164B4360164B1A793B
:102E30000273164A82609A6802611A7B0275144A0C
:102E400082605A7B42751B698361124C00F11C033E
:102E50002068616803C306F1240508340FCC0FC550
:102E60000FCC0FC50FCC0FC523682B6070233370B8
:102E70000023B37000220023C6E92223304670BC31
:102E8000704700BFFCE90000C82B0020B0E900003B
:102E90002CEB000058EC000010B504460830FEF79B
:102EA0008DFD204610BD00BF10B586B00446407DA4
:102EB000012304930392002202920191009213468F
:102EC0000146A069FEF75EFFA369024AC3F86822C3
:102ED00006B010BD400D030030B4002952D00B469F
:102EE000D0E92245B5F1FF3F08BFB4F1FF3F04D060
:102EF000013445F10005C0E9224580F859300C2B1A
:102F00003CD8DFE803F007151D21191D2125292DC7
:102F10002D313500D0E92423B3F1FF3F08BFB2F1D2
:102F2000FF3F33D0013243F10003C0E924232DE0F9
:102F3000036E0133036629E0436E0133436625E0E7
:102F4000836E0133836621E0C36E0133C3661DE0E7
:102F5000036F0133036719E0436F0133436715E0E3
:102F6000836F0133836711E0C36D0133C3650DE0E7
:102F7000D0F884300133C0F8843007E0C36F0133E8
:102F8000C36703E0002380F85930C3E730BC7047C3
:102F900010B5A1F17004E4B2072C04D90C21FFF79D
:102FA0009BFFFF2010BD01701179017391680161D1
:102FB000117B0175517B417512698261C0F89830AF
:102FC0004360002010BD00BF70B582B090F858304B
:102FD00053B30E46044600F1080501782846FFF772
:102FE0003DF831462846FEF7A9FCC0B2012805D0BD
:102FF0000B212046FFF770FFFF2516E0627D0023BE
:1030000000930123A1692846FFF724FB054628B158
:1030100001462046FFF760FFFF2506E066700021AD
:103020002046FFF759FF00E0FD25284602B070BD9D
:1030300090F8583003B330B583B00D46044602789B
:10304000417D00230193012300938069FFF716FB64
:10305000012807D0A36993F851122046FFF73CFFDF
:10306000FF200BE0A069FFF751FB287000212046EC
:10307000FFF732FF002001E0FD20704703B030BDB4
:1030800070B584B004460E46012380F858305A21AA
:10309000FFF79AFF8DF80F0088B194F85920237834
:1030A000019204EB8202526A00926268134914484A
:1030B00004F0BCFF002384F85830FD251BE00546D2
:1030C0000DF10F012046FFF7B3FF9DF80F205A2A9C
:1030D0000DD0237801925A2200926268094908486B
:1030E00004F0A4FF002384F85830FD2503E03146A6
:1030F0002046FFF769FF284604B070BD94EC00003D
:1031000084320020D0EC000070B40646164B4360B9
:10311000164B1A790273164A82609A6802611A7B0A
:103120000275144A82605A7B42751B6983614FF4B1
:103130004943C38347F6F073038400F130040E4D16
:103140000FCD0FC40FCD0FC40FCD0FC42B6823605C
:10315000482333700023F37000220023C6E926239E
:10316000304670BC704700BFFCE90000C82B00204F
:10317000B0E900002CEB000064ED000010B504463F
:103180000830FEF71BFC204610BD00BFF0B404461B
:103190004023037000274770478087804FF4805397
:1031A000C380164B8360164B1A790274154AC260AD
:1031B0009A6842611A7B0276134AC2605A7B427651
:1031C0001B69C36100F12405104E0FCE0FC50FCE51
:1031D0000FC50FCE0FC533682B60A4F85A7047F6A1
:1031E000FC73A4F85C30A4F86A70A4F86C30002278
:1031F0000023C4E92A232046F0BC7047FCE9000004
:10320000C82B0020B0E900002CEB000098ED000076
:1032100010B504460C30FEF7D1FB204610BD00BFB0
:1032200030B40C4A42600C4A117901730B49816039
:1032300091680161117B017509498160517B41757C
:10324000126982615022027000240025C0E91E45E7
:1032500030BC7047FCE90000C82B0020B0E900003A
:103260002CEB000010B504460830FEF7A7FB204603
:1032700010BD00BF10B586B00446407D0123049305
:103280000392002202920191009213460146A06926
:10329000FEF778FDA369024AC3F8682206B010BDA4
:1032A000400D030030B4002950D00B46D0E91E4534
:1032B000B5F1FF3F08BFB4F1FF3F04D0013445F141
:1032C0000005C0E91E4580F849300C2B3AD8DFE8EC
:1032D00003F007151D21191D2125292D2D3135003C
:1032E000D0E92023B3F1FF3F08BFB2F1FF3F31D057
:1032F000013243F10003C0E920232BE0036D0133C9
:10330000036527E0436D0133436523E0836D01339B
:1033100083651FE0C36D0133C3651BE0036E01339A
:10332000036617E0436E0133436613E0836E013397
:1033300083660FE0C36C0133C3640BE0436F01335A
:10334000436707E0C36E0133C36603E0002380F8E0
:103350004930C5E730BC704710B5A1F15004E4B264
:10336000072C04D90C21FFF79DFFFF2010BD017031
:103370001179017391680161117B0175517B417570
:1033800012698261C0F888304360002010BD00BF20
:1033900008B501F480539BB223B10C21FFF782FFE3
:1033A000FE2008BD49BA8183002008BD838B5BBA2B
:1033B000826B12FA83F3C3F30B035BBA8383704708
:1033C00090F84830ABB130B583B0044600F1080541
:1033D00001782846FEF742FE627DA1690023009332
:1033E00001232846FFF736F9002814BFFF200020EC
:1033F00001E0FD20704703B030BD00BF10B50446AA
:10340000012380F84830FFF7DBFF034618B10023A3
:1034100084F84830FF23184610BD00BF2DE9F04165
:1034200084B00446114B1B680293029E0E440F4F5A
:1034300000F108054FF000083B680393039B9E4290
:103440000FD321782846FEF709FE627DCDF8008073
:103450000123A1692846FFF7FDF803460028EBD1B8
:1034600000E0FF23184604B0BDE8F081583000208A
:1034700070B582B090F84830002B42D00446052148
:10348000FFF7CCFF28B104212046FFF70BFFFF25F3
:1034900038E004F10805264616F81C1B2846FEF7FE
:1034A000DDFD022231462846FEF75CFAE063A26B9E
:1034B000216B2846FEF756FAE36B1844E063A36BD2
:1034C0000233984205D20B212046FFF7EBFEFF2581
:1034D00018E0627D002300930123A1692846FFF7CD
:1034E000B9F8054628B101462046FFF7DBFEFF2567
:1034F00008E02046FFF75AFF00212046FFF7D2FEE2
:1035000000E0FD25284602B070BD00BF70B586B052
:1035100005460B4B1E695C7B2046FEF77BFA0123B8
:103520000493084B039300220292019000921346E9
:1035300021463046FEF726FC284606B070BD00BF87
:10354000C82B0020A086010008B50248FFF7DEFF67
:1035500008BD00BFDC2B00202DE9F0418679384AF8
:1035600002FB06F21EB94579012D27DC55E006F273
:10357000B27740F2B273DFF8CCE04FF0640C4FF456
:10358000C878002B16DD13F0030F13D18EFB035404
:10359000DD17C5EB64140CFB14343CB98EFB0345FA
:1035A000DC17C4EBE51408FB143119B902F5A83295
:1035B00002F5C0720133BB42E3D1D4E706F2B27622
:1035C000204B83FB063EF317C3EB6E1C642101FB0B
:1035D0001C6CC3EBEE1E4FF4C87303FB1E6E1A493E
:1035E00001231A4F06F00308022B0FD1002E0DDD28
:1035F000B8F1000F0AD1BCF1000F02D1BEF1000FEB
:1036000004D102F5181202F56E5202E00C7807FBA5
:10361000042201330131AB42E6D181784378C3EB18
:1036200003139B004FF4616404FB013301780B44E6
:1036300001790139054800FB01301044BDE8F081F3
:103640008033E1011F85EB51CCED0000805101007A
:1036500010B40878A0F13003092B45D907E000EB3E
:103660008000303B03EB400080B2023102E00020DA
:1036700000E021460B782BB32E2B26D14B78A3F1FB
:103680003002092A1AD893B28A78A2F13004092CA0
:1036900024D8C978E1B903EB830304EB43039BB25D
:1036A00008E0012203EB83035B009BB20132D2B23C
:1036B000012AF7D903EB002080B21EE05BB90002BB
:1036C00080B21AE0000280B217E04FF6FF7014E0FB
:1036D0004FF6FF7011E04FF6FF700EE08A78002A77
:1036E000DFD04FF6FF7008E0303880B24C1C4B78CA
:1036F000A3F13002092AB2D9BBE710BC704700BF62
:1037000089B32DE9F84308460B7893B3894606F050
:10371000F7FE804609EB00064C46274614F8015B8D
:10372000284605F00DFE08B1002DF6D1B74206D0AF
:1037300016F8010D05F004FE08B1B742F8D108F102
:10374000FF38C844464504D0002373703846BDE8AE
:10375000F8834F4509D0B7420AD1002389F80030D9
:103760003846BDE8F883002070474846BDE8F88336
:103770003846BDE8F88300BF70B50D465F2602E00D
:10378000254600E025462878B8B105F0D9FD90B16E
:103790006C1C2E7068780028F2D005F0D1FD00284E
:1037A000F0D0651C2946204606F038FE60780028D7
:1037B000E9D02C46F1E70135E5E770BD0B785B2BCE
:1037C0000CD110B50C46084606F09AFE204410F8BD
:1037D000010C5D2814BF0020012010BD002070479F
:1037E00010B50C46087830B108F06EFD207014F862
:1037F000010F0028F8D110BD10B50C46087830B183
:1038000008F070FD207014F8010F0028F8D110BDE9
:1038100010B5044641F20603C35A0A460449054856
:1038200004F004FC41F20402A35A0133A35210BD78
:10383000D8EF000084320020084B0022DA7183F8B0
:103840003C2483F83D2483F86424192183F866140A
:1038500083F86924024A1A60704700BFE02B0020F9
:10386000ACE1000010B50C4611F0010F03D00021AF
:10387000162002F0ADFA14F0020F03D00021092047
:1038800002F0A6FA3CB90121162002F0A1FA0121AA
:10389000092002F09DFA10BD38B50C4602212046E1
:1038A00002F0C8FA5023013BFDD1204602F0B4FAE1
:1038B000002814BF0025F3250121204602F0BAFAA2
:1038C0000021204602F084FA204602F0A5FA0028E2
:1038D00018BFF7250221204602F0ACFA284638BD71
:1038E00070B504460023A0F84C300621FFF7D4FF42
:1038F000C8B10546894803685B680D228849984726
:10390000884A894BF32D0CBF1D461546284606F004
:10391000F7FD824E33685B68024629463046984779
:10392000304604F06BFB08212046FFF7B5FF054643
:10393000C0B17A4803685B6809227C499847794A94
:10394000794BF32D0CBF1D461546284606F0D8FDD1
:10395000724E33685B6802462946304698473046C7
:1039600004F04CFB0A212046FFF796FF0546C0B144
:103970006A4803685B680B226D499847694A6A4B3D
:10398000F32D0CBF1D461546284606F0B9FD634EC3
:1039900033685B680246294630469847304604F053
:1039A0002DFB0F212046FFF777FF0546C0B15B488E
:1039B00003685B680B225F4998475A4A5A4BF32DBC
:1039C0000CBF1D461546284606F09AFD534E336837
:1039D0005B680246294630469847304604F00EFBA5
:1039E00014212046FFF758FF0546C0B14B48036835
:1039F0005B680C22504998474A4A4B4BF32D0CBF49
:103A00001D461546284606F07BFD444E33685B682C
:103A10000246294630469847304604F0EFFA0B211B
:103A20002046FFF739FF0546C0B13C4803685B6894
:103A30000922424998473B4A3B4BF32D0CBF1D4698
:103A40001546284606F05CFD344E33685B68024636
:103A5000294630469847304604F0D0FA0C212046DB
:103A6000FFF71AFF0546C0B12C4803685B680922BE
:103A7000334998472B4A2C4BF32D0CBF1D46154656
:103A8000284606F03DFD254E33685B680246294610
:103A900030469847304604F0B1FA01210D2002F07B
:103AA000C9F901210D2002F093F90D2002F0B4F9BB
:103AB00088B9B4F84C3043F48063A4F84C30174D07
:103AC0002B685B680B221F4928469847284604F05C
:103AD00095FAF32500E0002500210D2002F078F989
:103AE0000D2002F099F990B1B4F84C3043F48063A2
:103AF00043F00403A4F84C30084C23685B680C22A4
:103B0000114920469847204604F078FAF72500210D
:103B10000D2002F08FF9284670BD00BF84320020CE
:103B20007CF30000ECF30000E0F300008CF30000F5
:103B300098F30000A4F30000B0F30000C0F300000D
:103B4000CCF30000D8F30000E4F3000011F0030F01
:103B500015D10D4BA3FB01235B09642202FB131358
:103B60009BB273B9084BA3FB0123DB094FF4C87068
:103B700000FB131080B2B0FA80F0400970470020BB
:103B800070470120704700BF1F85EB51022A0ED1FC
:103B900010B51C46FFF7DAFF20B11D2C8CBF0020AA
:103BA000012010BD1C2C8CBF0020012010BD024440
:103BB000127F9A4234BF00200120704738B590F838
:103BC0006634F3B10C4605460B685B6810220D495C
:103BD000204698470023102295F86614204604F0EA
:103BE00033FA23685B68032207492046984700237D
:103BF000102295F86814204604F026FA204604F0B6
:103C0000FDF938BDECF4000000F5000038B50546BC
:103C10000C4690F86634D3B10B685B6826221D49C8
:103C200020469847204604F0E9F995F86634012BC0
:103C300008D123685B682F22174920469847204601
:103C400004F0DCF921462846FFF7B8FF38BDC379F8
:103C50004BB90B685B681C221049204698472046E8
:103C600004F0CCF938BD90F83C344BB90B685B6874
:103C70001A220B4920469847204604F0BFF938BD68
:103C80000B685B680F22074920469847204604F0DE
:103C9000B5F938BD0CF5000034F5000064F50000FE
:103CA00084F50000A0F5000008B5FFF7AFFF04F0B1
:103CB00047FAFCE708B506460C461546104606F0DE
:103CC0001FFC23685B680246294620469847204629
:103CD00004F094F921463046FFF7E6FF08B58378F3
:103CE00063F07F03837000F110020169806801F0C6
:103CF000EFF908BD2DE9F041037813F0200F30D122
:103D000042691D4B9A422ED80546FFF7E7FF06464B
:103D100070B32969A86801F071F90746A8680522FF
:103D20003946243001F046F98046F0B14FF4007274
:103D3000002105F0FBFEA8680379012B0CD90124B2
:103D400003685B684246E119984780B10134E4B2E8
:103D5000A8680379A342F3D86A6902EB43236B6135
:103D600006E0002604E0002602E0002600E0064609
:103D70003046BDE8F08100BFFFFD1F0010B50446CE
:103D800080680A46A169243001F014F930B1034675
:103D9000A08800F00F0003EB401010BD002010BD04
:103DA000F0B50646431E0022082710464FF02E0CA1
:103DB0004FF0100E01331D461C78202C15D0D4B2C4
:103DC000082C04D1441C01F800C0E0B277462C78DE
:103DD000A4F14105EDB2192D04D8357B2F421CBF4B
:103DE0002034E4B2451C0C54E8B201320B2AE1D174
:103DF00000230B54F0BD00BF38B50378A3B90D46BE
:103E000004462422002105F091FEA560EB79102BD9
:103E100002D0202B03D009E02023237001E04023AF
:103E200023700120A07038BD002038BD002038BDAF
:103E30002DE9F04F83B0044600920378002B00F088
:103E4000BE8089461146827812F0010F00F0B780DB
:103E500013F0080F08D0C36942699B1A0A469942B9
:103E600028BF1A4600920DE013F0200F0AD0836895
:103E70001A894369C3EB42139BB2009A9A4228BF46
:103E80001A460092009B002B00F095801F464FF0D1
:103E9000000A04F1100301936369C3F30808227850
:103EA00012F0200F04D0A268166A06EB532624E015
:103EB000A06890F805A00AEA532AB8F1000F16D1BD
:103EC000BAF1000F13D133B912F0400F14BF036AD7
:103ED000236A23610BE0019A216901F095F800281B
:103EE0006DDB20B9237813F0700F65D167E021698D
:103EF000A06801F083F80AEB0006B8F1000F08D1C2
:103F0000B7F5007F05D3D4F808B0DBF82C309E421B
:103F100013D1C8F50075BD4228BF3D46A0680022F8
:103F20003146243001F046F80146002847D02A46A1
:103F30004144484601F0BEFD35E0B7F5806F28D317
:103F4000C7F34728227812F0200F07D19BF80420EE
:103F5000CAEB0202D2B2904528BF90464FEA4825EC
:103F60009E420CD343449E4209D20BF1240000F040
:103F7000F9FF20B30BF50C7000F0F4FFF8B1A06866
:103F80000368D3F808B043464A463146D84750B98B
:103F900015E0DBF800301B684A4631465846984722
:103FA00068B14FF40075A94463692B4463617F1BBA
:103FB0007FF472AF00E0009F009BD81B05E06378A0
:103FC00043F0020363704FF0FF3003B0BDE8F08FA1
:103FD00030B583B004464369C3F3431505B171B9E5
:103FE00001220DF107012046FFF722FF40B2012810
:103FF00001D0002009E063691F33636101E02033D1
:104000004361A068303000EB451003B030BD00BF05
:104010002DE9F041044607690278002A3ED00E4699
:104020004169B1423ED016B90023036132E012F07B
:10403000080F03D0C3699E4230D808E012F0200F69
:1040400005D083681B89B6EB431F27D822E0D4F83C
:1040500008E09EF806500935481EE840731E23FA12
:1040600005F5A84200D849B912F0400F14BFDEF898
:104070002030236A236104F1100801E02D1AFAE7C9
:1040800045B142462169A06800F0BEFF013D00280D
:10409000F6DC03E066610120BDE8F08127610020C5
:1040A000BDE8F0810120BDE8F08100BFF8B504460D
:1040B0000F4615461E462422002105F037FDB8683C
:1040C000A060A5803B6AE36005F00F0200EB42139D
:1040D00093F83B3013F0080F3DD103F01703237022
:1040E00000EB421191F83B1011F0180F04BF43F0A0
:1040F000080323709DF81830E37016F0320F03D0D8
:10410000237813F0110F26D106F00F03A370C36AB2
:10411000A36100EB4213B3F84410B3F84A3043EA0A
:10412000014116F0100F08D011B101F007F890B15D
:10413000A37863F07F03A37004E0216200EB4212D6
:10414000D36CE36116F0200F09D0E1692046FFF738
:104150005FFF034620B900202070034600E00123E2
:104160001846F8BD0378002B40D10B7813F0700F80
:104170003ED04B6913F01F0F3CD12DE9F04782B0C0
:1041800091460C4680460027BA463D4604E02F463D
:1041900002E02F4600E02F46666929462046FFF7D9
:1041A00017FF48B303784BB32E2BF0D0E52BF0D09C
:1041B000C17A11F0080F0FD12FB100F0F5F9824547
:1041C00018BF00201CD100974B46C6F34F12214662
:1041D0004046FFF76BFF13E00F29DCD113F0400FCF
:1041E000DAD003F01F0790F80DA0D5E70020704744
:1041F0000020704700207047002001E00020FFE70A
:1042000002B0BDE8F08700BF38B50378002B35D089
:10421000044690F90230002B1EDA0121FFF7AEFDB3
:10422000054628B30378E52B22D0237813F0080F36
:104230001CBFE369C361238C4383638C8382114B6E
:104240001B682BB100F11601183098472B8B6B823D
:10425000A37803F07F03A370A56805F1240000F0A4
:1042600081FE28B105F50C7000F07CFE034630B9E4
:10427000637843F001036370002300E001231846D4
:1042800038BD00BF5430002010B50446FFF7BCFF16
:104290000023237010BD00BF2DE9F04192B00192C0
:1042A000984600238DF824308DF825300378002BB4
:1042B00044D106460C460B7813F0700F40D01346DD
:1042C00012782F2A12D1013301931A782F2AFAD0AB
:1042D0002AB9A1683046FFF78FFD034631E0A16897
:1042E00009A8FFF789FD034658B309AC012701AAC5
:1042F00003A9019800F0FCF9034610B3019B1B7859
:10430000A3B13B4603AA2146304600F099FB034681
:10431000B8B109AC35460FCD0FC40FCD0FC42B6813
:1043200023603046FFF7B0FF09ACE0E7434603AA3D
:104330002146304600F084FB034602E0002300E003
:104340000023184612B0BDE8F08100BF70B50646E4
:104350000C46FFF759FF0546B8B100213046FFF77C
:104360000DFD034680B1066840689968DA682660EA
:104370006060A160E2601E6958699969DA69266126
:104380006061A161E26100E00025284670BD00BFC8
:104390002DE9F84F0546037813F0080F00F0C280AE
:1043A00088469246837813F0020F00F0BB8013F02A
:1043B000040F05D0C169FFF72BFE002800F0B28082
:1043C0006B69DB439A4500F2AD80BAF1000F00F053
:1043D0008D8057464FF001094FF0050BA8686B69B7
:1043E0004279C3F3080612EA532421D1002E40F08B
:1043F000A180296981B105F1100200F005FE0028B5
:10440000C0F29080002840F09F802846FFF766FCAD
:10441000002840F0998085E02B6A3BB92846FFF7D9
:104420005DFC00287ED02B692B628DE02B618BE038
:10443000296900F0E3FD2118002E40F09680B7F5C1
:10444000007FC0F0878018E04A4600E05A46A8681E
:10445000243000F0AFFD002864D0224641463044AD
:1044600001F028FB2644B6F5007F38D1A868243037
:1044700000F078FD002832D154E0B7F5806F1CD3EE
:10448000A8680279121BD2B2C7F34723934228BF10
:1044900013465C02C26A8A4208D81A448A4205D985
:1044A000002280F824204FF0FF32C262A868026820
:1044B000D6684246B04790B934E0AB68DA6A8A42BF
:1044C00005D1002283F824204FF0FF32DA62A86879
:1044D00003685B684246984720B34FF400746B69E9
:1044E00023446B61A0443F1B7FF478AF6B69EA699A
:1044F000934205D9EB61AB7863F07F03AB7006E0C4
:104500001D4B1B681BB1AB7863F07F03AB70AB78BE
:1045100013F0080F03D02846FFF776FE10B150467F
:10452000BDE8F88F6B7843F001036B704FF0FF30FC
:10453000BDE8F88F296900F061FD0146C6F50074F9
:10454000BC4228BF3C467FE72969A86800F056FDB9
:10455000014674E7C6F50074BC4228BF3C466A6950
:10456000EB699A42BFF472AF6EE7C6F50074BC42C5
:1045700028BF3C464A466AE754300020042904D844
:1045800000EB4101B1F8010070470A2904D8013954
:1045900000EB4101C888704710299DBF013100EB35
:1045A0004101888800207047421E00F10A01002066
:1045B000430843EAC01012F8013F53FA80F0C0B23A
:1045C0008A42F5D1704700BF38B504460D46CB6826
:1045D0001BB98968FFF710FC38BD2422002105F0C3
:1045E000A5FA102323700120A070AB68A360EB68CC
:1045F000236238BD2DE9F04F8DB0009100238DF876
:104600000C308DF80D300378002B69D0834690462E
:104610000C2A65D9C3781BB900F08AFC019063E0CD
:10462000014603A8FFF7D0FF002859D09BF80330BC
:10463000002B55D04FF0010ABBF80410CAEB010162
:10464000490103A8FFF7E4FC0190002848D00021AD
:1046500003A8FFF7BDFC0746002841D0C37A0F2B03
:104660003ED1037803F01F039A4539D10AF1FF3395
:1046700003EB430503EB85052C46009B5E1905F112
:104680000D09611BC9B23846FFF778FF034658B1E0
:10469000A04514D901347E2894BFC3B23F2306F845
:1046A000013B4C45EDD100E0A146C84507D93B7818
:1046B00013F0400F03D00023009A02F80930009B4A
:1046C0004344002203F8012C3B7813F0400F0BD138
:1046D0000AF1010A5FFA8AFA9BF803305345ABD21C
:1046E0000023009A1370019301980DB0BDE8F08F7C
:1046F0002DE9F04F0378202B03D110F8013F202B38
:10470000FBD088600478002C00F01F812F2C06D08D
:1047100006460023944F05E02F2C03D100E0002330
:10472000C4181DE05C2C00F0F880A4F12205EDB265
:104730001D2D05D827FA05F515F0010F40F0F08082
:1047400004F0BF053C2D00F0EE80203CE4B25E2C6E
:1047500000F2EC80013316F8014F002CDCD1F5E0BB
:10476000264614F8015B202DFAD02F2DF8D01660C4
:1047700063B1C41814F8012D2E2A01D0202A02D1C9
:10478000013BF7D102E0FF2B00F3D3801E464B60C4
:1047900001F10C0201F11705202402F8014F9542A6
:1047A000FBD1451E002215F8014F2E2C01D0202CE4
:1047B00001D10132F7E7B2FA82FC4FEA5C1C5D1EC0
:1047C00007D4445D2E2C10D103E014F8016D2E2E79
:1047D0000DD19A4280F282804FF0000A0727564698
:1047E000D3464FF00809D04606E0741E0444013D4C
:1047F000B5F1FF3FE9D1ECE7845C202C65D02E2C8D
:1048000002D1AA4263D125E0222C20D07C2C1ED0DC
:10481000A4F12A0E5FFA8EFEBEF1050F02D82D2CF0
:1048200015D10DE0A4F13A0E5FFA8EFEBEF1050F30
:104830000DD9A4F15B0E5FFA8EFEBEF1020F06D910
:10484000A4F1210E5FFA8EFEBEF15D0F02D9AA42DD
:1048500003D107E0AA4202D104E0C4465F24BE426D
:1048600076D810E00A2F76D02A460A2708264FF07D
:1048700010092FE0AA4272DC2A460A2708264FF0C8
:104880001009C44626E0A4F1610E5FFA8EFEBEF167
:10489000190F04D8203CE4B249EA0A0A08E0A4F15E
:1048A000410E5FFA8EFEBEF1190F98BF49EA0B0B5D
:1048B00006F1010E5FFA8EFE0E447473BEF1060F10
:1048C00007D881F80CE0764604E0C44602E0C4460E
:1048D00000E0764601329A428EDB02E04FF0000A99
:1048E000D3464B7B202B27D0BCF1000F0BD00BEA1B
:1048F0000A0BBBF1000F18BF4FF0020A81F800A0AD
:104900000120BDE8F08F012008700B7B19447E2345
:104910004B7331238B73BDE8F08F0020BDE8F08F1F
:104920000020BDE8F08F0020BDE8F08F0020BDE83A
:10493000F08F0020BDE8F08F0020BDE8F08F002050
:10494000BDE8F08F0020BDE8F08F0023C6180EE709
:104950000A2F8FD103E04B7B202BD4D1EFE74B7B89
:10496000202BD0D1EEE700BF010100312DE9F84F37
:1049700004460E460D7B4FF002084FF07E0901F110
:104980000D075FFA88F3012B03D872193033937344
:1049900024E0726808EB02039BB2B0684AB101469A
:1049A000104411F8012B03EB431353409BB2814297
:1049B000F7D1032D28BF03252A1DD2B295420DD26F
:1049C00003F00F011046092994BF303137313044CC
:1049D00041731B09013AD2B29542F1D1731983F8A0
:1049E0000D9000212046FFF713FB4FF0010A4FF016
:1049F0000B0B51462046FFF7EBFA014628B96078C9
:104A0000B0FA80F04009BDE8F88F037853B1C37A5B
:104A100013F0080FEDD15A46384604F0F1FF002894
:104A2000E7D105E00120BDE8F88F0020BDE8F88F50
:104A300008F101081FFA88F8B8F1640FA1D1F4E772
:104A40002DE9F04F8DB00C7814F0700F00F0D58187
:104A50000478002C40F0D381D2F804A0147814F02C
:104A6000030F0BD00AF10C04B64DA5FB04484FEA26
:104A7000980808F101085FFA88F801E04FF0010892
:104A80000993154605920E460B9000213046FFF71C
:104A9000BFFA0027089703973C46BB4607972B466B
:104AA0000D3306931DE04FF0000B1AE04FF0000BA2
:104AB00017E04FF0000B14E003934FF0000B10E0F1
:104AC0004FF0000B0DE04FF0000B0AE04FF0000B31
:104AD00007E04FF0000B04E00123079301E0DDF84D
:104AE00028B07369C3F34F1901213046FFF770FAFC
:104AF000054620B97378002B00F0958081E103789A
:104B0000E52B00D043B9002C08BF4F4644453CBFBD
:104B10000134E4B223B986E0444538BF002401E003
:104B2000E52BC0D02E2BC1D0EA7A0F2A54D1BBF18D
:104B3000000F09D113F0400FD3D003F01F0B6B7B94
:104B40000893CDF80CB00BE0039A013AD2B203926D
:104B50009342AED16A7B08999142ADD108920393FA
:104B6000039B013B03EB430203EB82029146924518
:104B7000A6D90D32CDF828B004954D469346C5EB25
:104B80000901C9B20498FFF7F9FCCA4506D1DDF85E
:104B900028B0002818BF4FF0000BA2E7FF2892D8DA
:104BA000C0B2A0F14103DBB2192B9CBF2030C0B2D0
:104BB00009F10102059B9B6813F80930A3F141013B
:104BC000C9B219299CBF2033DBB283427FF47EAF88
:104BD0005A4584D09146D2E712F0080F7FF479AF9E
:104BE000BBF1000F0BD0039B012B40F00C8128463A
:104BF000FFF7DAFC089B83420FD000230EE10B2263
:104C00000699284604F0FCFE00287FF46AAF059B55
:104C10001B7813F0010F7FF45FAF099B13F0800F37
:104C200000F0E180F1E0099B03F04203422B40F0E9
:104C3000EE80002C08BF4F46444520D2002529466F
:104C40003046FFF7C5F930B97378002B40F0E180AA
:104C5000A04505D813E00134E4B2A045EFD80EE03A
:104C60003046FFF747F80346002800F0D780B368C6
:104C70001B79012B03D81034E4B2A045F0D8079B70
:104C80003BB105993046FFF771FE0346002800F05E
:104C9000C58079013046FFF7BBF90346002800F0D4
:104CA000BD8008F1FF3818F0FF0B62D05F464FF06F
:104CB00000084FF00F09059A13460D330493CDF801
:104CC0000CB0934641463046FFF782F9054600286E
:104CD00000F0A180B26892F8243043F0010382F81A
:104CE0002430039BBB420CBF47F040043C46047099
:104CF00080F80B9080F80C800498FFF755FC6873DF
:104D000085F81A8085F81B80DBF8081004F01F0472
:104D1000631E03EB430403EB8404224643460C4426
:104D2000924501D9E05C05E0BAEB020018BF4FF0F4
:104D3000FF3080B2D9B2042906D805EB4301A1F8AF
:104D400001000CE04FECC44E0A2903D805EB4301E7
:104D5000888004E010299CBF05EB4301C880013224
:104D600001330D2BDCD1013F17F0FF07AAD1DDF88D
:104D70000CB07369C3F34F1900213046FFF728F9CF
:104D80000446002849D02022002104F0CFFE0598D7
:104D9000034653F80D1F5A68216062601A899B7A96
:104DA0002281A372037803F0180323731D4B1B6841
:104DB0002BB104F10E0104F11000984707E0212304
:104DC0002374282363740023A3730823E373238AC3
:104DD00063822383E389E382B26892F8243043F04C
:104DE000010382F82430CDF800B0099B4A463146D1
:104DF0000B98FFF75BF9034610E000230EE0002359
:104E00000CE000230AE0002308E0002306E0002372
:104E100004E0002302E0002300E0002318460DB068
:104E2000BDE8F08F5430002038B5054663290ED810
:104E30000D4BA3FB0123DB08C3EB4314C3EB84043A
:104E4000303101EB4404E4B203F1300101E03F21D1
:104E50000C462B681B68284698472B681B68214620
:104E60002846984738BD00BFCDCCCCCC70B584B0B7
:104E700004460D4604A9002301F8023D681200F221
:104E8000BC7000F045FA064605F03AFB23685B6803
:104E9000024631462046984723681B682D2120464C
:104EA0009847C5F343112046FFF7BEFF23681B68F0
:104EB0002D212046984705F01F012046FFF7B4FF3B
:104EC00004B070BD38B504460D46C90AFFF7ACFF03
:104ED00023681B683A2120469847C5F345112046B0
:104EE000FFF7A2FF23681B683A212046984705F088
:104EF0001F0149002046FFF797FF38BD30B589B044
:104F00000C466946FFF722FA054670B1BDF8181045
:104F10002046FFF7ABFF23681B68202120469847F7
:104F2000BDF816102046FFF7CDFF284609B030BD6A
:104F300003789BB113F0600F05D02F230B70002373
:104F40004B700120704710B50C460021FEF716FF8C
:104F500030B12146FEF724FF012010BD002070472C
:104F6000002010BDF8B5037813F0010F1CD00446E3
:104F7000406804F10C0603685B683246A1689847F4
:104F80000546A0B1237813F0020F08D06068A76827
:104F9000016903685B6832463944984730B1237829
:104FA00023F00103237002E0012500E005462846B6
:104FB000F8BD00BF70B50446154683688B4211D01A
:104FC0000E46FFF7CFFFA8B115F0040F07D16068B8
:104FD00003681B6804F10C023146984760B1002356
:104FE0002370A66005F0030523781D43204600F8D2
:104FF0000C5B70BD002070BD002070BD023983794C
:10500000994040690844704770B504460D461646FD
:10501000C379202B0FD18169022201EBD51100F554
:105020000C70FFF7C7FFD8B105F07F0550F82530A9
:1050300023F070430EE0102B15D1C1F307218369D3
:105040000222194400F50C70FFF7B4FF70B1EDB205
:1050500030F81530E26993420BD83360012070BDFF
:105060004FF0FF3070BD4FF0FF3070BD4FF0FF309C
:1050700070BD002070BD00BF38B50C461546C37921
:10508000202B0ED18169032201EBD41100F50C70A5
:10509000FFF790FFB0B104F07F0440F824500120E6
:1050A00038BD102B10D1C1F30721836903221944A5
:1050B00000F50C70FFF77EFF40B1E4B220F8145009
:1050C000012038BD002038BD002038BD002038BD8B
:1050D0002DE9F04182B0054690460F4609B9C668F1
:1050E00000E00E4634460134EB699C4288BF02243E
:1050F00001AA21462846FFF787FF002804DB08B1F4
:10510000019B1BB1B442EED1002613E06FF0704258
:1051100021462846FFF7B0FF064658B13FB1224668
:1051200039462846FFF7A8FF10B9064602E0EC60B2
:10513000C8F80040304602B0BDE8F081F0B583B059
:1051400005460C46002701AA21462846FFF75CFFCA
:10515000061E0EDB3A4621462846FFF78DFF024623
:1051600040B1EB689C4238BFEC60019C002EEAD154
:1051700000E00022104603B0F0BD00BF38B5044681
:105180000023C3710122C260806280F824304FF096
:10519000FF32C262C0F8340280F83032C0F83822E0
:1051A000C1B10D46042975D81A4619462430FFF7B7
:1051B00001FF002870D0013D00EB051292F8BE21DE
:1051C00012F07F0F6AD11C3500EB0515D5F806509B
:1051D0000DB965E000250022294604F12400FFF7FF
:1051E000E9FE024600285DD0B0F80B30B3F5007F31
:1051F0005AD1037C022B59D1C389002B58D0407B54
:105200002071431E63710023A37101280DD019463C
:10521000012303E013B9A171002038BD5B00DBB2AC
:105220000131C9B29842F5D1A171D38A0BB11946A7
:1052300000E0516A2161D3892B44A361B2F81100C7
:10524000208103EB41032362B2F81110490101F2FE
:10525000FF1103EB61236361B2F8131001B9116A06
:10526000ED1A0D44A37925FA03F3591CE16140F6C8
:10527000F4718B4203D80C23E371002038BD4FF644
:10528000F4718B4291BF1023D36A23622023E37110
:10529000012038BD002038BD002038BD002038BDB9
:1052A000002038BD002038BD002038BD002038BDAA
:1052B000002038BD092825D910B4821002EB600205
:1052C000C2F30F14224492B202EB1222C2F3CC02B8
:1052D00094B2D2B202EB8202A0EB4203DBB2092B02
:1052E00083BF601CA3F10A04E3B22046303301F807
:1052F000013D0928E1D800F13003084600F8013DDE
:1053000010BC704700F13003084600F8013D7047BB
:1053100008B5030C1AD0830803EB500303EB1313F7
:1053200003EB132303EB1343DB08DAB202EB820235
:10533000A0EB4200C2B2092A83BF581C0A3AD2B27B
:105340001846303201F8012D030CE4D180B2FFF78A
:10535000B1FF08BD03797BB110B504460121407946
:1053600000F036FDFF21206800F044FB206800F0CB
:105370009FFB0023237110BD704700BF037963B901
:1053800010B50446C179006800F082FA0021607906
:1053900000F01EFD0123237110BD70472DE9F0417F
:1053A00082B004460F469046194B1B680093009E3E
:1053B000174D206800F0BAFA2072FF2809D12B6837
:1053C0000193019B9B1BB3F5967FF2D91123A37127
:1053D00016E0FE2802D00F23A37111E042463946A1
:1053E000206800F0B7FA207210B11C23A37107E007
:1053F000206800F09BFA206800F098FA012003E092
:105400002046FFF7A7FF002002B0BDE8F08100BFF3
:1054100058300020F0B583B004460F460A4B1B6895
:105420000093009E084D206800F080FAFF2807D006
:105430002B680193019B9B1BBB42F4D3002000E02F
:10544000012003B0F0BD00BF58300020F0B583B09C
:1054500004460F46019203790BB9FFF78FFF4FF413
:1054600016712046FFF7D6FF47F04001206800F094
:10547000C1FA02AD01AE15F8011D206800F0BAFABC
:10548000B542F8D1AFB18721206800F0B3FA0C2FF4
:1054900002D1206800F04AFA0025206800F046FAA0
:1054A000207210F0800F09D00135B5F5807FF4D15E
:1054B00004E09521206800F09DFAEDE703B0F0BD0F
:1054C0002DE9F04784B0054608469A4600236B72E2
:1054D000AB7129606A714F4B1B680093009E1146A7
:1054E00000F0C4F98023EB712846FFF747FF2846F8
:1054F000FFF730FF0A24FF273946286800F07AFAC0
:10550000631E13F0FF04F7D10024424F22462146C8
:105510002846FFF79BFF012809D03B680193019BB8
:105520009B1BB3F5FA6FF1D90123AB716AE04FF41D
:10553000D5780827DFF8DC90424639462846FFF741
:1055400085FF052804D101236B724FF000081AE093
:105550000424286800F0EAF92872631E13F0FF049F
:10556000F7D1AA2804D102236B724FF080480AE0D9
:10557000D9F800300293029B9B1BB3F5FA6FDBD97D
:105580000223AB713EE000273724DFF888903A46CB
:1055900021462846FFF75AFF424629212846FFF7B1
:1055A00055FF50B1D9F800300393039B9B1BB3F513
:1055B000FA6FECD90A23AB7124E06B7A022B1AD173
:1055C00000223A212846FFF741FF10B10823AB71B2
:1055D00018E0286800F0AAF900F0C000C02804BF55
:1055E00003236B72286800F0A1F9286800F09EF987
:1055F000286800F09BF92846FFF7ACFE85F807A065
:10560000012003E02846FFF7A5FE002004B0BDE816
:10561000F08700BF5830002038B504461546437A5D
:10562000032B18BF49020A461121FFF70FFF10B1E3
:105630000423A3710BE04FF4007229462046FFF7C4
:10564000ADFE054618B12046FFF784FE03E0204674
:10565000FFF780FE0025284638BD00BF10B5044680
:105660000A46437A032B18BF4A021221FFF7EEFEC7
:1056700030B10523A3712046FFF76CFE002010BD5A
:10568000012010BD10B5044600220C21FFF7DEFEFC
:1056900030B10323A3712046FFF75CFE002010BD4C
:1056A0002046FFF757FE012010BD00BF2DE9F04155
:1056B000064615461F46FFF7D1FF0346A0B17FB14E
:1056C00000244FF40078424629463046FFF766FE34
:1056D000034648B10134A4B205F50075BC42F2D3CB
:1056E0003046FFF7CFFF03461846BDE8F08100BF04
:1056F00038B504461546006800F07CF94FF4007296
:105700002946206800F086F9FF21206800F072F930
:10571000FF21206800F06EF9206800F007F9207280
:1057200000F01F00052806D01323A3712046FFF7C1
:1057300011FE002038BD012038BD00BF38B5044639
:105740001546437A032B18BF49020A461821FFF772
:105750007DFE10B10623A3710AE02A46FE212046F1
:10576000FFF7C6FF054618B12046FFF7F3FD03E03B
:105770002046FFF7EFFD0025284638BD38B5044622
:105780000D464FF41671FFF745FE10B91723A371AC
:1057900006E02A46FC212046FFF7AAFF034618B977
:1057A0002046FFF7D7FD0023184638BD70B50446E4
:1057B0000D46164600223721FFF748FE32461721D4
:1057C0002046FFF743FE10B10923A3710BE0637A73
:1057D000032B18BF6D022A4619212046FFF736FE1B
:1057E00030B10723A3712046FFF7B4FD002070BD40
:1057F000012070BD38B504464FF41671FFF70AFE5C
:1058000070B1FD21206800F0F5F84FF416712046C4
:10581000FFF700FE054618B12046FFF79BFD05E0A7
:105820001223A3712046FFF795FD0025284638BDB9
:10583000F8B5074614461E461A46FFF7B7FF78B17B
:1058400056B1002521463846FFF798FF40B1013593
:1058500004F50074AE42F5D13846FFF7CBFFF8BD32
:105860003846FFF777FD0020F8BD00BF10B50C46A5
:105870000121204600F0DEFA0121204600F0A8FABE
:10588000024A136843F48053136010BD3C80044007
:1058900002290FD9042910D9082910D90C2911D9A6
:1058A000102912D9202913D9194B1A4A402998BF17
:1058B00013460EE04FF000430BE0002309E041F2F5
:1058C000010306E042F2020303E043F2030300E0B7
:1058D000114B43F0605243F0F0431049C9688A42CB
:1058E00003D10E4909698B4204D00C490C48086069
:1058F000CA600B610B4A094B1A604FF410730A4AD5
:1059000013604FF4007104321160083A136070475D
:1059100006600100055001000440010000C0024083
:1059200001401F8000001F8018B00440084B1A6817
:1059300042F480621A604FF00042DA62FF225A633A
:105940001A46D36A002BFCDA014B986BC0B2704741
:1059500000C00240F8B50C461546234A234B1A6096
:1059600015F0010F05D04E1CFFF7E0FF2070013D40
:105970003446052D02D86A0801D107E0032200232E
:105980001A481B49416301339342FBDB5600A81BB5
:105990002044844215D22146144A154FD36A13F08D
:1059A000F00FFBD05763936B1D1201F8025B01F8F7
:1059B000013C8842F2D8E343034423F0010302335D
:1059C0001C443044A0420CD9084AD36A13F0F00FAB
:1059D000FBD0936B191204F8021B04F8013CA0429F
:1059E000F3D80020F8BD00BF00041F8000C00240B3
:1059F000FFFF0090064B1A6842F480621A604FF075
:105A00000042DA6259631A46D36A002BFCDA704707
:105A100000C00240F8B51446234A244B1A6014F023
:105A2000010F05D04D1C0978FFF7E4FF013C294622
:105A3000052C34D80D19640803D18D4213D91B4AA3
:105A400014E08A1C0020194F114612F8026C12F85B
:105A5000013C43EA062343F010437B6301300232EA
:105A6000A042F1DBE9E7ECB1104A10E011F8020BBB
:105A700011F8013C43EA0020D36A13F0F00FFBD089
:105A800040F010435363936BA942EFD3EBE7D36A23
:105A900013F0F00FFBD0936B013CF8D1F8BD0D195A
:105AA0000324CEE7F8BD00BF00041F8000C0024001
:105AB000704700BF844641EA000313F003036DD131
:105AC000403A41D351F8043B40F8043B51F8043BC1
:105AD00040F8043B51F8043B40F8043B51F8043BC8
